:020000040800F2
:10000000A81100243D030008634800080D440008BF
:1000100061480008570500089152000800000000E0
:100020000000000000000000000000003949000846
:100030006505000800000000374900083B4900083A
:100040005703000857030008570300085703000828
:100050005703000857030008570300085703000818
:100060005703000857030008570300085905000804
:1000700057030008570300085703000857030008F8
:1000800057030008570300085703000857030008E8
:1000900057030008570300085703000857030008D8
:1000A00057030008570300085703000857030008C8
:1000B0001D4A0008294A0008570300085703000892
:1000C00057030008570300085703000857030008A8
:1000D00057030008795200088552000857030008AA
:1000E00057030008570300080000000057030008EA
:1000F0005703000857030008570300085703000878
:100100005703000857030008570300085703000867
:100110005703000857030008570300085703000857
:100120005703000857030008570300085703000847
:100130005703000857030008570300085703000837
:1001400000000000000000000000000000000000AF
:100150005703000857030008570300085703000817
:100160005703000857030008570300085703000807
:100170005703000857030008570300080000000059
:1001800057030008570300085703000857030008E7
:1001900057030008570300085703000857030008D7
:1001A00057030008570300085703000857030008C7
:1001B00057030008570300085703000857030008B7
:1001C00057030008570300085703000857030008A7
:1001D0005703000857030008570300085703000897
:1001E0005703000857030008570300085703000887
:1001F0005703000857030008570300085703000877
:100200005703000857030008570300085703000866
:100210005703000857030008570300085703000856
:1002200057030008570300085703000800000000A8
:100230005703000857030008000000005703000898
:100240005703000857030008570300085703000826
:100250005703000857030008570300085703000816
:100260005703000857030008570300085703000806
:100270005703000857030008570300080000000058
:100280005703000857030008570300080000000048
:10029000000000005703000800F002F800F03EF8EC
:1002A0000AA090E8000C82448344AAF10107DA45D1
:1002B00001D100F033F8AFF2090EBAE80F0013F0E5
:1002C000010F18BFFB1A43F001031847C465000073
:1002D000E4650000103A24BF78C878C1FAD8520704
:1002E00024BF30C830C144BF04680C6070470000B0
:1002F0000023002400250026103A28BF78C1FBD82F
:10030000520728BF30C148BF0B6070471FB506F0C9
:1003100099FA00F0D5F81FBD10B510BD00F0E6F851
:100320001146FFF7F3FF06F059FA00F004F903B4A1
:10033000FFF7F2FF03BC00F007F90000094880470F
:1003400009480047FEE7FEE7FEE7FEE7FEE7FEE7B7
:10035000FEE7FEE7FEE7FEE704480549054A064BCF
:10036000704700004149000899020008A80B0024CA
:10037000A8110024A80D0024A80D002453EA020CA3
:1003800000F069802DE9F04B4FF00006002B1FBFF5
:10039000B3FA83F503FA05F424FA05F65E4012BFBA
:1003A0001643B2FA82F502FA05F4C5F120051EBF24
:1003B00022FA05FC44EA0C04203556EA044C4FEAC4
:1003C000144418BF641C4FF000084FF0000990421D
:1003D00071EB030C39D3002919BFB1FA81F701FA87
:1003E00007F6B0FA80F700FA07F6C7F120071EBF3C
:1003F00020FA07FC46EA0C062037B6FBF4FCA7EB14
:100400000507103F07F01F0BCBF120060CFA0BFB82
:100410002CFA06F644BFB3460026202FA4BF5E4642
:100420004FF0000B5BEA060C08BF4FF0010B19EB15
:100430000B09ABFB027C48EB0608C01B06FB02CC99
:100440000BFB03CC71EB0C01C1E70B4602464146A6
:100450004846BDE8F08B13B54FF000004FF00001A7
:10046000AFF30080BDE81C4070474FF0000200B5BC
:10047000134694469646203922BFA0E80C50A0E8C7
:100480000C50B1F12001BFF4F7AF090728BFA0E875
:100490000C5048BF0CC05DF804EB890028BF40F841
:1004A000042B08BF704748BF20F8022B11F0804F83
:1004B00018BF00F8012B7047704770477047000065
:1004C00070B5064C7C44064D7D4403E02068204412
:1004D0008047241DAC42F9D170BD0000E8630000E4
:1004E000E863000000487047480B00247546FFF79A
:1004F000F9FFAE4605006946534620F007008546E1
:1005000018B020B5FFF728FFBDE820404FF00006E7
:100510004FF000074FF000084FF0000B21F00701EB
:10052000AC46ACE8C009ACE8C009ACE8C009ACE82E
:10053000C0098D46704710B50446AFF300802046D1
:10054000BDE81040FFF7F3BE01491820ABBEFEE73F
:10055000260002007047FEE7014800F0EDBA0000F7
:10056000D0020024704772B6FEE770472DE9F84FBD
:10057000044601F099FA009034B194F8350002284D
:1005800005D080206065EBE00120BDE8F88FCC4EFF
:10059000CB4FCB491836DFF828833037DFF820936C
:1005A000DFF81CA308F14808DFF814B309F160096B
:1005B00020680AF1780A0BF1900B88422ED0B042E5
:1005C0002CD0B8422AD0404528D0484526D05045A6
:1005D00024D0584522D0BA4AA83290421ED0B94AF7
:1005E00090421BD0B74A1832904217D0B54A3032E9
:1005F000904213D0B34A483290420FD0B14A603291
:1006000090420BD0AF4A7832904207D0AD4A903238
:10061000904203D0AB4AA832904209D1026822F03E
:100620001E0202602068426922F08002426103E0FB
:10063000026822F00E02026025688D4228464DD0E5
:10064000B0424BD0B84249D0404547D0484545D04C
:10065000504543D0584541D0994AA83290423DD0A8
:10066000984A90423AD0974A1832904236D0954AEA
:100670003032904232D0934A483290422ED0914A42
:10068000603290422AD08F4A7832904226D08D4AEA
:100690009032904222D08B4AA83290421ED08A4A91
:1006A00090421BD0884A1432904217D0864A283292
:1006B000904213D0844A3C3290420FD0824A50324A
:1006C00090420BD0804A6432904207D07E4A783202
:1006D000904203D07C4A8C32954204D1206E02684D
:1006E00022F48072026076492068884228D0B042A5
:1006F00026D0B84224D0404522D0484520D050458D
:100700001ED058451CD06E49A831884218D06D497A
:10071000884215D06B491831884211D0694930316F
:1007200088420DD067494831884209D06549603117
:10073000884205D063497831884201D061499031BF
:10074000016821F0010101600EE001F0ADF90099AE
:10075000401A052808D920206065032084F8350058
:10076000002084F834000FE72868C007EDD1544A10
:100770000121206890422ED0B0422CD0B8422AD01D
:10078000404528D0484526D0504524D0584522D051
:100790004B4BA83398421ED04A4B98421BD0494B32
:1007A0001833984217D0474B3033984213D0454BFB
:1007B000483398420FD0434B603398420BD0414BA3
:1007C0007833984207D03F4B9033984203D03D4B4B
:1007D000A833984208D194F85C30A06D03F01F054F
:1007E0003F23AB40836007E094F85C30A06D03F0DA
:1007F0001F0301FA03F34360206890424DD0B042DA
:100800004BD0B84249D0404547D0484545D05045E7
:1008100043D0584541D02A4AA83290423DD0294A77
:1008200090423AD0274A1832904236D0254A303288
:10083000904232D0234A483290422ED0214A603230
:1008400090422AD01F4A7832904226D01D4A9032D8
:10085000904222D01B4AA83290421ED01A4A90429F
:100860001BD0194A1432904217D0174A28329042AE
:1008700013D0154A3C3290420FD0134A5032904266
:100880000BD0114A6432904207D00F4A783290421E
:1008900003D00D4A8C3290420BD1D4E91902426048
:1008A000E06E30B1026822F480720260D4E91C026A
:1008B000426084F83510002084F8340065E60000BA
:1008C0001000024010040240085402582DE9F05F65
:1008D00028B190F83510022904D08021416501200B
:1008E000BDE8F09F914A914B914D1832904E3033B4
:1008F000DFF838C21835DFF834E24836DFF83092D6
:10090000DFF82CA20EF1600EDFF824B209F13009F5
:1009100001680AF1600A864C0BF1A80B614529D0E9
:10092000914227D0994225D0804F4837B94221D0F3
:1009300071451FD07D4F7837B9421BD07B4F903720
:10094000B94217D0794FA837B94213D0A14211D07C
:10095000A9420FD049450DD0B1420BD0514509D025
:10096000734F7837B94205D0714F9037B94201D0F3
:1009700059452FD1042780F83570614525D0914223
:1009800023D0994221D06948483081421DD0714519
:100990001BD066487830814217D06448903081423D
:1009A00013D06248A83081420FD0A1420DD0A94295
:1009B0000BD0494509D0B14207D0514505D05C481C
:1009C0007830814201D05A489030086820F0010008
:1009D0000860A8E0D1F8008028F00E08C1F8008077
:1009E0000168E04641452BD0914229D0994227D059
:1009F000DFF838C10CF1480C614521D071451FD09A
:100A0000DFF828C10CF1780C614519D0DFF81CC162
:100A10000CF1900C614513D0DFF810C10CF1A80C5B
:100A200061450DD0A1420BD0A94209D0494507D05C
:100A3000B14205D0514503D0DFF8F4C00CF1780C79
:100A4000D1F800C02CF0010CC1F800C001684FF0D3
:100A5000010C414546D0914244D0994242D0334A9C
:100A6000483291423ED071453CD0304A7832914272
:100A700038D02E4A9032914234D02C4AA83291423A
:100A800030D0A1422ED0A9422CD049452AD0B14223
:100A900028D0514526D0264A7832914222D0B942F8
:100AA00020D059451ED0234A91421BD0214A1432EE
:100AB000914217D01F4A2832914213D01D4A3C322E
:100AC00091420FD01B4A503291420BD0194A6432E6
:100AD000914207D0174A7832914203D0154A8C329E
:100AE000914218D1016E0A6822F480720A6090F86F
:100AF0005C20816D02F01F020CFA02F24A60D0E91C
:100B000019124A60C16E31B10A6822F480720A601B
:100B1000D0E91C124A6080F835C0002180F83410FA
:100B2000016D01B188470020DAE6000010000240A4
:100B300010040240085402582DE9FC5F04460020CE
:100B400000904FF41651F9480068B0FBF1F00190A5
:100B5000A56D2E682A68F64FDFF8D483DFF8D0A39E
:100B6000DFF8CCB308F1180820680AF1300ADFF882
:100B7000C4930BF1480BB84238D04146884235D077
:100B8000504533D0584531D0E949603188422DD0A5
:100B9000E7497831884229D0E5499031884225D00B
:100BA000E349A831884221D048451FD0E149183196
:100BB00088421BD0DF493031884217D0DD494831A7
:100BC000884213D0DFF86CE30EF1600E70450DD053
:100BD000D84B7833984209D0DFF858C30CF1900C09
:100BE000604503D0D349A83188427DD194F85C1088
:100BF000082301F01F0103FA01F232424CD0B8423F
:100C000033D0404531D050452FD058452DD0C8491C
:100C10006031884229D0C6497831884225D0C449FC
:100C20009031884221D0C249A83188421DD0484520
:100C30001BD0C0491831884217D0BE493031884294
:100C400013D0BC49483188420FD0BA49603188423C
:100C50000BD0B8497831884207D0B64990318842E4
:100C600003D0B449A831884203D1016801F00401DE
:100C700002E0016801F0080171B1016821F004018E
:100C8000016094F85C0000F01F0003FA00F2AA6013
:100C9000606D40F00100606594F85C00012100F097
:100CA0001F008140314241D02068B84235D04045D4
:100CB00033D0504531D058452FD09D4A60329042B4
:100CC0002BD09B4A7832904227D0994A903290425A
:100CD00023D0974AA83290421FD048451DD0954A4C
:100CE0001832904219D000E0B3E1924A303290427B
:100CF00013D0904A483290420FD08E4A60329042D0
:100D00000BD08C4A7832904207D08A4A9032904277
:100D100003D0884AA83290427ED1406910F0800FFB
:100D200004D0A960606D40F00200606594F85C003A
:100D3000042100F01F00814031423FD02068B842BA
:100D400033D0404531D050452FD058452DD0784A2A
:100D50006032904229D0764A7832904225D0744A47
:100D60009032904221D0724AA83290421DD048451C
:100D70001BD0704A1832904217D06E4A30329042DF
:100D800013D06C4A483290420FD06A4A6032904287
:100D90000BD0684A7832904207D0664A903290422F
:100DA00003D0644AA83290424FD1006810F0020F7D
:100DB00004D0A960606D40F00400606594F85C00A8
:100DC000102100F01F008140314259D02068B84204
:100DD00035D0404533D0504531D058452FD0544AB6
:100DE000603290422BD0524A7832904227D0504AFB
:100DF0009032904223D04E4AA83290421FD04845AC
:100E00001DD04C4A1832904219D04A4A3032904292
:100E100015D0484A483200E015E090420FD0454ACC
:100E2000603290420BD0434A7832904207D0414A18
:100E30009032904203D03F4AA832904207D10068D6
:100E400000F0080006E0006870E70068B6E7006898
:100E500000F00400A0B1A96020680168490304D52E
:100E60000068000308D5A16C07E00168C90503D438
:100E7000016821F008010160216C09B12046884712
:100E800094F85C00202100F01F008140314278D0AE
:100E90002068B84233D0404531D050452FD0584516
:100EA0002DD0234A6032904229D0214A7832904294
:100EB00025D01F4A9032904221D01D4AA83290423C
:100EC0001DD048451BD01B4A1832904217D0194AF2
:100ED0003032904213D0174A483290420FD0154A10
:100EE000603290420BD0134A7832904207D0114AB8
:100EF0009032904203D00F4AA832904203D100684A
:100F000000F0100002E0006800F00200A0B3A96049
:100F100094F835000428206801680DD049037CD579
:100F20000068000329D4616C28E000000C00002454
:100F3000100002401004024021F0160101602068F8
:100F4000416921F080014161206C08B9A06C20B199
:100F50002068016821F00801016094F85C0000F04D
:100F60001F013F208840A860012084F83500002040
:100F700084F83400216D65E003E0E16B09B120469F
:100F80008847606D00287DD0606DC00759D004206F
:100F900084F835002068B8422BD0404529D0504510
:100FA00027D0584525D09E49884222D09C491831E7
:100FB00088421ED09A49303188421AD09849483127
:100FC000884216D0484514D09649884211D0954998
:100FD000183188420DD093493031884209D0914967
:100FE0004831884205D08F496031884201D08D490F
:100FF0007831016821F00101016021680098019AAF
:10100000401C0090904202D80868C007F6D10868DA
:10101000C00710D003200FE0FFE70168C905ACD47A
:10102000016821F010010160012084F835000020E2
:1010300084F83400A1E7012084F83500002084F80A
:101040003400E16C00291DD002B02046BDE8F05FFD
:101050000847754988421DD073491431884219D018
:1010600071492831884215D06F493C31884211D0EE
:101070006D49503188420DD06B496431884209D0A6
:10108000694900E084E07831884203D066498C31B8
:1010900088427DD101684FF0040894F85C6006F046
:1010A0001F0608FA06F818EA020FCDF8008047D0AC
:1010B0005FEA417844D500986860080403D5C80306
:1010C0003CD4A16CBEE7880638D42068B8422DD045
:1010D00053494839884229D0504527D0584525D012
:1010E0004F49884222D04E49183188421ED04C497F
:1010F000303188421AD04A494831884216D0484592
:1011000014D04849884211D04649183188420DD040
:1011100044493031884209D0704507D0984205D003
:10112000604503D03F499031884203D1016821F0E6
:10113000080102E0016821F004010160216C81E7EF
:101140004FF0020808FA06F818EA020FCDF80080FE
:101150004FD05FEA81784CD500986860080403D5C9
:10116000C80344D4616C6DE7880640D42068B84257
:101170002FD02B49483988422BD0504529D058458B
:1011800027D02749884224D025491831884200E0D9
:1011900043E01ED02249303188421AD020494831DC
:1011A000884216D0484514D01E49884211D01D49A6
:1011B000183188420DD01B493031884209D0704522
:1011C00007D0984205D0604503D016499031884237
:1011D00003D1016821F0140102E0016821F00A0145
:1011E0000160012084F83500002084F83400E16BB0
:1011F00028E70823B34013420FD009070DD5016833
:1012000021F00E01016094F85C0000F01F01012044
:1012100000FA01F1696060650EE7BDE8FC9F00001F
:101220007000024028040240085402582DE9F05F83
:10123000044600F039FC0646F4B3E24F0222DFF820
:1012400084830025DFF87C93DFF878A308F1300869
:10125000DFF870B309F1480920680AF1600A0BF160
:10126000780BB84234D0D7491831884230D0404545
:101270002ED048452CD050452AD0584528D0D149A9
:101280009031884224D0CF49A831884220D0CE491D
:1012900088421DD0CC491831884219D0CA49303112
:1012A000884215D0C8494831884211D0C6496031BA
:1012B00088420DD0C44900E042E07831884207D02E
:1012C000C1499031884203D0BF49A83188427CD1BE
:1012D00084F83520B84284F834502CD0B9491831FC
:1012E000884228D0404526D0484524D0504522D0B9
:1012F000584520D0B349903188421CD0B149A8311B
:10130000884218D0B049884215D0AF491831884278
:1013100011D0AD49303188420DD0AB4948318842B7
:1013200009D0A9496031884205D0A749783188425F
:1013300001D0A5499031016821F00101016009E067
:101340000120BDE8F09F00F0AFFB801B052801D90C
:10135000202015E120680068C007F4D122681168D8
:101360009A480140D4E902031843D4E904363343D0
:101370001843A3691843E3691843236A18430843D1
:10138000616A042903D1D4E90B1319430843904936
:1013900009686FF30F01B1F1005F0FD36168A1F12C
:1013A0002903052B08D9163B032B05D9083B012B34
:1013B00002D94F39032901D840F480101060206809
:1013C000406920F00701606A00E01CE0042840EA60
:1013D00001060BD1A06A0643E06A38B1204604F04A
:1013E00085FB18B1402060650120CBE02068466194
:1013F000204604F0A5FB94F85C1001F01F023F2189
:101400009140816056E0734988421BD0714B143380
:10141000984217D06F4B2833984213D06D4B3C3312
:1014200098420FD06B4B503398420BD0694B6433CA
:10143000984207D0674B7833984203D0654B8C3382
:1014400098427DD1884201D06249143184F8352018
:1014500084F83450026860490A40A168402970D07D
:1014600080296FD00021E36841EAD301236941EA72
:10147000D301636941EAD301A36941EAD301E36976
:1014800041EAD301236A41EA131111430160514932
:101490002068494208441421B0FBF1F08000E06567
:1014A000204604F04DFB94F85C1001F01F0201216E
:1014B000914041602068B84255D042491831884275
:1014C00051D040454FD048454DD050454BD0584560
:1014D00049D03C499031884245D03A49A8318842A8
:1014E00041D0394988423ED03749183188423AD0F4
:1014F00035493031884236D033494831884232D07C
:101500003149603188422ED02F49783188422AD023
:101510002D499031884226D02B49A831884222D0CB
:101520002C4988421FD02B49143188421BD02949AD
:101530002831884217D027493C31884213D002E035
:101540001DE017E018E02349503188420BD02149B3
:101550006431884207D01F497831884203D01D4941
:101560008C31884228D1204604F046FBA0688028B0
:101570000BD00BE0102176E74FF4804173E7402059
:101580006065032084F83500DAE66560216E207915
:101590000860D4E9190141606068401E072808D836
:1015A000204604F079FBE06E0560D4E91C0141603F
:1015B00002E0E566256765676565012084F835000A
:1015C0000020BEE610000240100402403F8010FEE2
:1015D0000010005C085402580F00FEFF2DE9F84F80
:1015E00004004FF00000009014D094F8340001285B
:1015F00012D0012084F8340094F835500020012DD9
:101600000CD04FF40061616584F834000120009033
:10161000BDE8F88F0120FBE70220F9E7022584F8F6
:1016200035506065974D974E964F1835DFF854C288
:101630003036DFF850824837DFF84892DFF844A2AE
:1016400008F16008DFF83CB209F1780920680AF176
:10165000900A0BF1A80B604533D0A84231D0B042BC
:101660002FD0B8422DD040452BD0484529D05045E9
:1016700027D0584525D0DFF810C2604521D0DFF8CB
:1016800008C20CF1180C60451BD0DFF8FCC10CF14E
:10169000300C604515D0DFF8F0C10CF1480C604506
:1016A0000FD0DFF8E4C10CF1600C604509D0DFF821
:1016B000D8C10CF1780C604503D0DFF8CCC10CF137
:1016C000900CD0F800C02CF0010CC0F800C02046EF
:1016D00004F0FCF86B49206888422CD0A8422AD03C
:1016E000B04228D0B84226D0404524D0484522D028
:1016F000504520D058451ED0634A90421BD0624AC4
:101700001832904217D0604A3032904213D05E4A6D
:10171000483290420FD05C4A603290420BD05A4A15
:101720007832904207D0584A9032904203D0564ABD
:10173000A83290420CD1026822F01E0242F016023A
:101740000260206C88B12068026842F008020BE059
:10175000026822F00E0242F00A020260206C20B100
:101760002068026842F004020260206888424BD080
:10177000A84249D0B04247D0B84245D0404543D0B6
:10178000484541D050453FD058453DD03E4A904213
:101790003AD03D4A1832904236D03B4A30329042DD
:1017A00032D0394A483290422ED0374A6032904285
:1017B0002AD0354A7832904226D0334A903290422D
:1017C00022D0314AA83290421ED0304A90421BD0DB
:1017D0002E4A1432904217D02C4A2832904213D00D
:1017E0002A4A3C3290420FD0284A503290420BD0C5
:1017F000264A6432904207D0244A7832904203D07D
:10180000224A8C3290420DD1206E0268D20303D559
:10181000026842F480720260E06E18B1026842F41D
:10182000807202602068884226D0A84224D0B0424C
:1018300022D0B84220D040451ED048451CD050454B
:101840001AD0584518D01049884215D00E49183181
:10185000884211D00C49303188420DD00A494831B4
:10186000884209D008496031884205D0064978315C
:10187000884201D004499031016841F001010160C2
:101880000098C5E6100002401004024008540258B7
:1018900070B5044600F008F90546601C02D0044803
:1018A0000078044400F000F9401BA042FAD370BD58
:1018B000000000242DE9F84F694C00224FF0B04A97
:1018C0004FF0010B4FF003084FF00F09C0E00BFA87
:1018D00002F6334073D00D7905F00305012D01D0D8
:1018E000022D15D18768550008FA05FC27EA0C0778
:1018F000D1F80CC00CFA05FC4CEA070CC0F808C083
:101900004568B5430E79C6F3001696402E434660EF
:101910000D79ED43AD0708D0C668550008FA05F704
:10192000BE438F68AF403743C7600D7905F00305AC
:10193000022D11D1D50800EB85073E6A5507ED0E43
:1019400009FA05FC26EA0C06D1F810C00CFA05FCD1
:101950004CEA060CC7F820C00668550008FA05F7DF
:10196000BE430F7907F00307AF40374307604D6868
:1019700015F4403F6BD03B4D2E6846F002062E60BA
:101980002D6822F0030606F1B04605F00205009529
:10199000D6F8087495074FEA157C09FA0CF5AF43A1
:1019A000314DA84201D100252EE0304DA84201D191
:1019B000012529E02E4DA84202D1022524E046E06F
:1019C0002C4DA84201D103251EE02B4DA84201D188
:1019D000042519E0294DA84201D1052514E0284D20
:1019E000A84201D106250FE0264DA84201D10725C6
:1019F0000AE0254DA84201D1082505E0234DA84263
:101A000001D1092500E00A2505FA0CF53D43C6F889
:101A10000854DAF8005056464F689D43FF0200D53F
:101A20001D43356075684F689D43BF0200D51D4357
:101A3000756065684E689D43B60300D51D436560BB
:101A400025684E689D43F60300D51D432560521C52
:101A50000B6833FA02F57FF43AAFBDE8F88F000067
:101A600080000058F4440258000002580004025854
:101A700000080258000C02580010025800140258C6
:101A800000180258001C0258002002580024025876
:101A90000AB1816170470904FBE700000148006852
:101AA000000C70470010005C01488068704700001F
:101AB0000000002490F84120202A24D190F84020F2
:101AC000012A20D0012280F84020242280F84120E1
:101AD0000268136823F0010313600268136823F49B
:101AE00080531360026813680B43136001680A682F
:101AF00042F001020A60202180F84110002180F8A4
:101B00004010084670470220704790F84120202A74
:101B100022D190F84020012A1ED0012280F84020D6
:101B2000242280F841200268136823F00103136027
:101B30000268136823F4706343EA012111600168AD
:101B40000A6842F001020A60202180F84110002159
:101B500080F84010084670470220704770B50400B6
:101B600004D094F84100002510B106E0012070BDBA
:101B7000204684F8405000F04FF8242084F84100BB
:101B80002068016821F0010101602168606820F08F
:101B9000706008612068816821F400418160E0681C
:101BA0000128A06830D040F4044021688860E068D3
:101BB0000228206841682AD021F400614160206831
:101BC0004168144A114341602068C16821F4004112
:101BD000C160D4E904010843A16940EA01202168F9
:101BE000C860D4E9070108432168086020680168DB
:101BF00041F0010101606564202084F84100256303
:101C000084F84250002070BD40F40040CDE741F41C
:101C10000061D3E70080000210B5B6B0044614217D
:101C200030A8FEF722FCC0216846FEF71EFC1949C9
:101C3000206888422BD10020219008210446CDE95C
:101C40000010684600F046FA08B1FEF78CFC124816
:101C5000016841F002010160006830A900F0020053
:101C600035904FF4406030901220CDE931040420CB
:101C7000CDE933400948FFF71DFE074808300168E9
:101C800041F480010160006800F48000359036B0B6
:101C900010BD000000580040E04402580004025803
:101CA0000248816802781144816070470000002476
:101CB000032010B500F086F801F05EF80F4A1168B5
:101CC0001268C1F303230E49CB5C03F01F03D84015
:101CD00002F00F02895C0B4A01F01F0120FA01F1AA
:101CE0001160094908600F2000F010F808B10120C8
:101CF00010BD00F02BF8002010BD00001844025861
:101D00007E680008100000240C00002470B50D4D02
:101D100004462A78A2B14FF47A700B49B0FBF2F076
:101D20000968B1FBF0F001F0A6FD48B9102C07D20C
:101D300000222146501E00F025F800206C6070BD86
:101D4000012070BD000000240C000024054808B5E7
:101D5000016841F002010160006800F0020000909B
:101D600008BD0000F4440258002809DB012100F0FE
:101D70001F0291404009800000F1E020C0F80011EE
:101D8000704700000E4BF0B41B68C3F30223C3F18D
:101D90000704042C00D904241D1D072D01D20023A3
:101DA00000E0DB1E012606FA04F56D1E0D409D4085
:101DB0009E40761E164045EA0601F0BC04F082BB48
:101DC0000CED00E0064A00F0070110684FF6FF0333
:101DD000184040EA012003490843106070470000A2
:101DE0000CED00E00000FA05124970B50A68D24314
:101DF000520705D5096801F00701814212D117E0A9
:101E00000A6822F0070202430A60FFF74DFE094DFF
:101E10004FF47A760446083D06E0FFF745FE001BC6
:101E2000B04201D9012070BD2868C0438004F4D4B9
:101E3000002070BD0C48025810B500F057FF05494E
:101E40000968054AC1F30211515C01F01F01C84045
:101E500010BD0000204402587E680008484910B5B3
:101E60000A68096802F00302454B1B1DC1F30531E6
:101E70001B68434C1434C3F300132468C4F3CC042C
:101E800014FB03F300EE103AB8EE400AE9B33C4B02
:101E90009FED3C1A1033F7EE000A62B1DFED3A1AFB
:101EA000012A01D0022A5ED002EE101AF8EE422A70
:101EB00081EEA22A1AE0324A283A1468A4060DD507
:101EC0001268C2F3C104314AE24001EE902AF8EEF2
:101ED000612A01EE901AF8EE611A05E001EE901AFF
:101EE000DFED2B2AF8EE611A82EEA12A1968C1F300
:101EF000080101EE901A1968F8EE611A40EE011A15
:101F000031EEA00A22EE000A00E033E0C1F34621E0
:101F100001EE101AB8EE411A31EE201AC0EE011A85
:101F2000BCEEE11A80ED001A1968C1F3064101EE1A
:101F3000101AB8EE411A31EE201AC0EE011ABCEEAA
:101F4000E11A80ED011A1968C1F3066101EE101A59
:101F5000B8EE411A71EE200A80EE201ABCEEC10ADA
:101F600080ED020A10BD01EE901ADFED0A2AF8EEAC
:101F7000611AB9E7002101604160816010BD000075
:101F800028440258000000390024744A0090D0030D
:101F90000024744C20BCBE4B484910B50A6809683F
:101FA00002F00302454B1B1DC1F305511B68434C56
:101FB0001C34C3F300232468C4F3CC0414FB03F3E0
:101FC00000EE103AB8EE400AE9B33C4B9FED3C1AE4
:101FD0001833F7EE000A62B1DFED3A1A012A01D098
:101FE000022A5ED002EE101AF8EE422A81EEA22AF0
:101FF0001AE0324A283A1468A4060DD51268C2F3D2
:10200000C104314AE24001EE902AF8EE612A01EE65
:10201000901AF8EE611A05E001EE901ADFED2B2A16
:10202000F8EE611A82EEA12A1968C1F3080101EEE7
:10203000901A1968F8EE611A40EE011A31EEA00A02
:1020400022EE000A00E033E0C1F3462101EE101A4F
:10205000B8EE411A31EE201AC0EE011ABCEEE11AB8
:1020600080ED001A1968C1F3064101EE101AB8EEAE
:10207000411A31EE201AC0EE011ABCEEE11A80EDD1
:10208000011A1968C1F3066101EE101AB8EE411A7F
:1020900071EE200A80EE201ABCEEC10A80ED020A21
:1020A00010BD01EE901ADFED0A2AF8EE611AB9E7C9
:1020B000002101604160816010BD00002844025889
:1020C000000000390024744A0090D0030024744CAE
:1020D00020BCBE4B2DE9FC5F044600680025FA4F8A
:1020E000C043DFF8E8832E46010104F108000190A7
:1020F00004F1280000901DD4A06E50B1B0F5801FEF
:102100000CD0B0F5001F0ED0B0F5401F1ED0012539
:102110000FE0386840F40030386017E00198022181
:1021200004F0E0F903E00098022104F065FA0500EC
:102130000CD02E462088C043C00523D4A06D0528AE
:102140001ED2DFE800F00C11161B1B00D8F800109F
:10215000A26E21F440111143C8F80010EAE7386874
:1021600040F40030386009E00198002104F0BAF929
:1021700003E00098002104F03FFA054675B100E045
:1021800001252E462088C043800528D4E06D802894
:102190001ED00CDC90B140280ED114E0D8F800100D
:1021A000A26D21F007011143C8F80010EAE7C0282A
:1021B00013D0B0F5807F10D001250FE0386840F4CF
:1021C0000030386009E00198002104F08BF903E049
:1021D0000098002104F010FA05468DB12E462088A3
:1021E000DFF8EC92C04340052CD4D4F8A800B0F539
:1021F000800F20D00DDCA0B1B0F5001F0FD115E08D
:10220000D8F80010E26D21F4E0711143C8F8001015
:10221000E5E7B0F5C00F13D0B0F5000F10D00125E1
:102220000FE0386840F40030386009E00198002180
:1022300004F058F903E00098002104F0DDF90546A8
:102240007DB12E462088C04300052DD4D4F8AC00C3
:10225000B0F1007F21D00EDCA8B1B0F1807F10D1A9
:1022600016E0D9F80010D4F8A82021F46001114339
:10227000C9F80010E6E7B0F1407F13D0B0F1806FED
:1022800010D001250FE0386840F40030386009E0D4
:102290000198002104F026F903E00098002104F0E1
:1022A000ABF9054675B12E462068C04380011FD4A6
:1022B000E06CD8B110280FD0202812D0302815D0CB
:1022C000012514E0D9F80010D4F8AC2021F0E06129
:1022D0001143C9F80010E7E7386840F4003038606F
:1022E00004E00198022104F0FDF8054675B12E4680
:1022F0002088C043C0042BD4206EB0F5005F20D0EE
:102300000DDCA0B1B0F5805F0FD115E06F48001F64
:102310000168E26C21F0300111430160E8E7B0F59B
:10232000405F13D0B0F5804F10D001250FE0386822
:1023300040F40030386009E00198002104F0D2F840
:1023400003E00098002104F057F905468DB12E46B0
:102350002088C043800429D4606EB0F5403F23D06C
:1023600010DC08B3B0F5803F14D0B0F5003F0FD1BA
:1023700015E0D8F80010226E21F4E0411143C8F8AE
:102380000010E5E7B0F5802F0ED0B0F5A02F0BD0F0
:1023900001250AE00198012104F0A4F803E0009867
:1023A000012104F029F9054695B12E462088C04345
:1023B00040042AD4D4F8B000B0F1405F23D010DC40
:1023C00008B3B0F1805F14D0B0F1005F0FD115E019
:1023D000D8F80010626E21F4E0211143C8F8001013
:1023E000E4E7B0F1804F0ED0B0F1A04F0BD0012543
:1023F0000AE00198012104F075F803E0009801213A
:1024000004F0FAF8054675B12E462088C043000452
:102410001FD4206FD8B1B0F1805F0ED0B0F1005F53
:1024200010D0012514E0D9F80010D4F8B02021F024
:10243000E0411143C9F80010E7E7386840F4003084
:10244000386004E00198012104F04CF8054675B1AC
:102450002E462068C043C0011ED4A06CD0B1012814
:102460000ED0022811D0032814D0012513E0D8F88B
:102470000010226F21F040511143C8F80010E8E726
:10248000386840F40030386004E00198022104F01C
:1024900029F805467DB12E462068DFF838B0C043E4
:1024A000400256D40C48016841F480710160FFF786
:1024B000FBFA824618E00548001F0168A26C21F073
:1024C000030111430160E7E72C44025850440258CD
:1024D000584402581044025800480258FFF7E4FAE2
:1024E000A0EB0A0064282CD8FE480068C005F5D58A
:1024F00045BBFD480068B4F8B41000F4407001F426
:10250000407188420CD0F8480168026821F440719B
:1025100042F480320260026822F48032026001607C
:10252000D4F8B400B0F5807F1AD1FFF7BDFA824627
:1025300009E0FFF7B9FAA0EB0A0141F288308142C5
:1025400001D9032504E0E84800688007F1D53DB1D2
:102550002E462078DFF894A3C043C00720D03BE08C
:10256000D4F8B400C0F3012103290ED0DBF8001029
:1025700021F47C51CBF80010DB480168B4F8B4209A
:10258000C2F30B0211430160E3E7DBF80020D84BF4
:1025900022F47C5203EA10100243CBF80020EBE750
:1025A000E06F182816D005DCA0B1082808D0102844
:1025B00004D10AE020280DD028280BD001250AE0FC
:1025C0000198012103F08EFF03E00098012104F03F
:1025D00013F8054665B12E462078C04380071ED407
:1025E000A06F062819D2DFE800F0160C1116161697
:1025F000DAF80010E26F21F038011143CAF8001038
:10260000EAE70198012103F06DFF03E00098012142
:1026100003F0F2FF05467DB100E001252E4620784B
:10262000C04340071FD4D4F89400062819D2DFE82D
:1026300000F0160C11161616DAF80010A26F21F031
:1026400007011143CAF80010E9E70198012103F0DE
:1026500049FF03E00098012103F0CEFF0546A5B134
:1026600000E001252E462078C04380062BD4D4F804
:102670009000B0F1405F24D011DC10B3B0F1805F66
:1026800015D0B0F1005F10D116E0D9F80010D4F8E1
:10269000942021F007011143C9F80010E3E7B0F1DD
:1026A000804F0ED0B0F1A04F0BD001250AE0019869
:1026B000002103F017FF03E00098022103F09CFFC4
:1026C000054695B12E462078C04340062BD4D4F859
:1026D0009C00B0F5406F24D011DC10B3B0F5806FD2
:1026E00015D0B0F5006F10D116E0DAF80010D4F86C
:1026F000902021F0E0411143CAF80010E3E7B0F563
:10270000805F0ED0B0F5A05F0BD001250AE00198E4
:10271000002103F0E7FE03E00098022103F06CFFC4
:10272000054695B12E462078C04300062BD4D4F838
:10273000A000B0F5C04F24D011DC10B3B0F5005F9D
:1027400015D0B0F5804F10D116E0D9F80010D4F8AC
:102750009C2021F4E0511143C9F80010E3E7B0F5E3
:10276000004F0ED0B0F5204F0BD001250AE00198A4
:10277000002103F0B7FE03E00098022103F03CFFC4
:10278000054655B12E462078C04300071ED4D4F824
:102790008400B0F5805F0AD00FE0D9F80010D4F8BB
:1027A000A02021F460411143C9F80010EBE7009824
:1027B000022103F021FF00B10126DAF80010D4F85D
:1027C000842021F440511143CAF800102078C043FE
:1027D000C00613D4D4F89800B0F5807F05D10098D6
:1027E000022103F009FF00B10126D9F80010D4F846
:1027F000982021F440711143C9F800102068C043AB
:10280000000316D4D4F8A40038B1B0F5803F09D045
:10281000B0F5003F0BD001250AE00198002103F03C
:1028200061FE03E00098022103F0E6FE05468DB14B
:102830002E462068C043400322D4D4F88800B0F567
:10284000801F11D0B0F5001F13D0B0F5401F15D078
:10285000012514E0D9F80010D4F8A42021F4403167
:102860001143C9F80010E4E7386840F400303860DC
:1028700004E00098012103F0BFFE05465DB12E463D
:102880002068C043C0031CD4206D70B1B0F5803FF8
:1028900010D0012514E0DAF80010D4F8882021F4D3
:1028A00040111143CAF80010EAE7386840F40030DC
:1028B000386004E00198022103F014FE05462DB3B0
:1028C0002E462068C043800005D40098022103F002
:1028D00093FE00B101262068C043800324D4D4F8BD
:1028E000800007E0004802587044025854440258DF
:1028F000CFFFFF00B0B1B0F5807F0FD0B0F5007F03
:1029000010D0B0F5407F0DD001250CE05A48016889
:10291000226D21F4803111430160D2E7386840F420
:1029200000303860F5B32E462068C043C00207D49B
:10293000D8F80010626F21F000411143C8F8001070
:102940002068C043C00008D4DBF80010D4F8B820D9
:1029500021F480411143CBF800102068C04380026D
:1029600007D4D8F80010E26E21F080711143C8F846
:1029700000102068C04340000CD4DBF8001021F4A4
:102980000041CBF80010DBF80010D4F8BC20114354
:10299000CBF800102068C04308D43748016821F004
:1029A000405100E017E0626D114301602068C043B0
:1029B000000208D4DAF80010D4F88C2021F4400189
:1029C0001143CAF8001020790025C04300F001002F
:1029D00028430AD00FE0DAF80010D4F8802021F460
:1029E00040711143CAF800109EE70198002103F0DE
:1029F00079FD00B106462079C04300F0020028436B
:102A000005D10198012103F06DFD00B10646207942
:102A1000C04300F00400284305D10198022103F0CF
:102A200061FD00B106462079C04300F0080028434C
:102A300005D10098002103F0DFFD00B106462079A2
:102A4000C04300F01000284305D10098012103F095
:102A5000D3FD00B106462079C04300F020000543B5
:102A600004D10098022103F0C7FD00B916B101207E
:102A7000BDE8FC9F0020FBE74C4402582DE9F05FC5
:102A800004000D467ED0DFF84492D9F8000000F033
:102A90000F00A8420CD2D9F8001021F00F012943F1
:102AA000C9F80010D9F8000000F00F00A84269D161
:102AB0002078874E40070AD52069316801F07001FF
:102AC000884204D9316821F07001014331602078D7
:102AD000DFF8008200070CD560694146D8F8002075
:102AE00002F07002904204D90A6822F07002024398
:102AF0000A602078C0060CD5A0694146D8F80020AD
:102B000002F4E062904204D90A6822F4E0620243CF
:102B10000A602078DFF8C0B180060CD5E06959461C
:102B2000DBF8002002F07002904204D90A6822F01B
:102B3000700202430A60207880070AD5E068316895
:102B400001F00F01884204D9316821F00F010143DF
:102B500031602078C0073DD03068A16820F47060F3
:102B6000084330605A4960681839022818D0032891
:102B700019D00968012819D04907002949DADFF876
:102B800050A100E045E0AAF1080ADAF8001021F0AF
:102B900007010143CAF80010FEF786FF074611E05F
:102BA00009688903E9E709688901E6E7C905E4E7F7
:102BB000FEF77AFFC11B41F28830814202D903201F
:102BC000BDE8F09FDAF80000616800F03800B0EB73
:102BD000C10FEDD1207880070AD5E068316801F097
:102BE0000F01884204D2316821F00F0101433160A6
:102BF000D9F80010484601F00F01A9420BD901682D
:102C000021F00F0129430160006800F00F00A84285
:102C100001D00120D4E7207840070AD52069316827
:102C200001F07001884204D2316821F07001014343
:102C30003160207800070CD560694146D8F8002043
:102C400002F07002904204D20A6822F0700202433D
:102C50000A602078C0060CD5A0694246D8F800105A
:102C600001F4E061884204D2116821F4E06101437B
:102C70001160207880060CD5E0695946DBF8002009
:102C800002F07002904204D20A6822F070020243FD
:102C90000A6000F071F83168C1F303220F498A5CC1
:102CA00002F01F02D040326802F00F02895C0C4A29
:102CB00001F01F0120FA01F111600A4908600A4879
:102CC0000068BDE8F05FFFF721B800000020005267
:102CD000184402581C440258204402587E680008D8
:102CE000100000240C0000240400002400B500F0B3
:102CF00043F80B4A11681268C1F303230949CB5CFE
:102D000003F01F03D84002F00F02895C064A01F06D
:102D10001F0120FA01F11160044A1060084600BD4D
:102D2000184402587E680008100000240C0000249B
:102D300000B5FFF7DBFF05490968054AC1F3021139
:102D4000515C01F01F01C84000BD00001C44025846
:102D50007E68000800B5FFF7C9FF05490968054A04
:102D6000C1F30221515C01F01F01C84000BD000009
:102D70001C4402587E680008434830B50068444C43
:102D800010F03801414808D00211082903D0102959
:102D90000BD018290BD0104630BD21688906FBD511
:102DA0002168C1F3C101C84030BD3A4830BD364941
:102DB00018310A68096802F00302334B1C33C1F36F
:102DC00005111B68304D03F0010324352D68C5F350
:102DD000CC0515FB03F300EE103AB8EE400AE9B358
:102DE000294BDFED2D0A2033B7EE001A62B1DFED7B
:102DF0002B1A012A01D0022A3CD002EE101AF8EE5A
:102E0000422A81EEA22A17E0226892060CD5226897
:102E1000C2F3C102D04001EE900AF8EE612A01EE41
:102E2000901AF8EE611A05E001EE901ADFED1C2A07
:102E3000F8EE611A82EEA12A1868C0F3080001EECC
:102E4000900A1868F8EE611A40EE201A31EE810AF5
:102E500022EE000AC0F34620401C00E011E000EE24
:102E6000900AF8EE600A80EE201ABCEEC10A10EE5D
:102E7000100A30BD01EE901ADFED0A2AF8EE611A51
:102E8000D8E7002030BD0000104402580090D00365
:102E90000044025840787D01000000390024744A43
:102EA0000024744C20BCBE4B2DE9F05F040079D0A7
:102EB0002078DFF8F8A3FE4EFE4DC00747D0DAF8C1
:102EC0000000316800F03800102815D0182803D110
:102ED00001F0030002280FD06068B0F5803F12D0E7
:102EE00010B1B0F5A02F18D0286820F480302860E9
:102EF000286820F4802009E02868800327D56068CE
:102F00000028D4D023E0286840F48030286060682E
:102F100088B1FEF7C9FD074609E0286840F4802023
:102F20002860F0E7FEF7C0FDC01B642872D828684F
:102F30008003F7D50BE0FEF7B7FD074604E0FEF788
:102F4000B3FDC01B6428F1D828688003F7D420782B
:102F500041F20309D84F800766D5DAF800003168DE
:102F600010F038000ED0182801D188070AD0E06888
:102F700080B3296821F0190101432960FEF794FD0F
:102F800080462EE02868400702D5E06800288ED0F1
:102F90002868E16820F0190008432860FEF784FDE6
:102FA000804606E0D8E0FEF77FFDA0EB080002288F
:102FB000BCD828684007F6D5FEF770FD48451AD8FA
:102FC0002069402811D0396821F47C3141EA003071
:102FD000386029E016E0FEF767FDA0EB0800022844
:102FE000A4D828684007F6D5E6E7386820F47C3096
:102FF00040F40030ECE73868217C20F0FE4040EAE5
:103000000160E5E7286820F001002860FEF74CFD2C
:10301000804606E000E1FEF747FDA0EB080002282D
:1030200084D828684007F6D42078C0065AD5DAF844
:103030000000316800F03800DFF870B20828ABF10A
:10304000040B10D0182803D101F0030001280AD086
:10305000E0690028286836D040F080002860FEF73C
:1030600023FD804621E02868C00521D5E06980283D
:1030700072D11DE0206A20281FD0396821F0F84164
:1030800041EA806038602DE0DBF8001094F82020E1
:1030900021F07C5141EA0261CBF8001022E0FEF7FA
:1030A00003FDA0EB080002289AD82868C005F6D5D1
:1030B000FEF7F4FC4845E7D8DCE7386820F0F84034
:1030C00040F08040DEE720F080002860FEF7ECFC56
:1030D000074604E0FEF7E8FCC01B0228A0D82868D9
:1030E000C005F7D42078000728D5714960694C31B4
:1030F000002888460846096810D041F001010160A7
:10310000FEF7D2FC074604E0FEF7CEFCC01B022807
:1031100086D8D8F800008007F6D50FE021F001012D
:103120000160FEF7C1FC074604E0FEF7BDFCC01BD2
:10313000022871D8D8F800008007F6D420788006DD
:1031400023D5A0690028286810D040F4805028605A
:10315000FEF7AAFC074605E038E1FEF7A5FCC01B18
:10316000022859D828688004F7D50EE020F4805052
:103170002860FEF799FC074604E0FEF795FCC01BAB
:10318000022849D828688004F7D4207840074DD514
:10319000DFF82881D8F8001041F48071C8F80010D9
:1031A000FEF782FC074604E0FEF77EFCC01B6428A5
:1031B00032D8D8F80000C005F6D53D4FA068483792
:1031C00001280AD008B1052813D0386820F0010082
:1031D0003860386820F0040002E0386840F00100F0
:1031E0003860A06841F2883990B1FEF75DFC8046F6
:1031F0000AE0386840F004003860EEE7FEF754FC5F
:10320000A0EB0801494507D838688007F6D50DE0DE
:10321000FEF74AFC804606E083E0FEF745FCA0EBA3
:10322000080149457DD838688007F6D4616AD9B36A
:10323000DAF800004FF6F87BDFF8748008F1080830
:10324000C0F3C200032808F10409A8F1040A69D0F8
:103250002868022920F08070286003D0FEF724FC43
:10326000044688E0FEF720FC074604E0FEF71CFC5D
:10327000C01B02287CD828688001F7D4306840F24F
:10328000F3318843E16A40EA0110A16A08433060E3
:1032900094F83400218E4002491EA0F5007080B2DF
:1032A000C1F3080108430BE0B3E0000010440258EA
:1032B0002844025800440258044402580048025866
:1032C000218F4FF4FE02491E02EA0141084394F89F
:1032D0003C101202491E02EA01610843C8F80000CE
:1032E000DAF80010504621F00101CAF80010D9F8B0
:1032F0000020A36C22EA0B0242EAC302C9F80020B4
:10330000DAF80010226C21F00C011143CAF8001009
:10331000DAF80010626C21F00201114301600168CB
:1033200001E025E02BE041F480310160016841F4C7
:1033300000310160016841F480210160016841F0C1
:1033400001010160286840F080702860FEF7ACFB46
:10335000044604E0FEF7A8FB001B022808D82868F2
:103360008001F7D555E0FEF79FFB001B022802D92C
:103370000320BDE8F09F28688001F4D449E032685A
:10338000D8F80000012921D0A36A02F00301994274
:103390001CD1E16AC2F30512914217D1216BC0F32F
:1033A0000802491E8A4211D1616BC0F34622491EB0
:1033B00091420BD1A16BC0F30642491E914205D147
:1033C000E16BC0F30660491E814201D00120D0E7C5
:1033D000D9F800004F46A16CC0F3CC00814218D050
:1033E000DAF80000564620F00100CAF80000FEF7A7
:1033F0005BFB0546FEF758FBA842FBD03868A16C82
:1034000020EA0B0040EAC1003860306840F001005B
:1034100030600020ADE700002DE9F041040027D026
:103420000025A562554F2068554A564BB84206D034
:10343000904204D0984202D0E1680F2918D8E16B7D
:10344000012606EB511CE1680831C908B84201FBAE
:103450000CF105D0904203D0984201D0082907D83A
:10346000B84203D0904201D0984204D1102902D929
:103470000120BDE8F08194F8810020B9204684F84D
:10348000805000F081F8022084F8810020680168F3
:1034900021F0010101602068816801F4F812A1693E
:1034A000B1F1806F10D16168B1F5800F01D019B111
:1034B0000AE0A16B21B107E0A16BB1F1805F03D1FC
:1034C000016841F4805101606068400209D5E068FC
:1034D000072806D320680168236D21F48071194301
:1034E00003E02068016821F480710160A16AE0694D
:1034F0000843E16B11430843E16808432168886091
:10350000616A606BA2690843A16B1143084321699A
:10351000084361690843216A084361680843E16C14
:103520000843A1680843A16C0843A16D08432168C2
:10353000C860606868B92068816821F4C05141F4AE
:10354000006181602068816821F4C06141F480617C
:1035500081602068016D21F0010101656068400211
:1035600006D52068C168626D21F000411143C16039
:10357000C4F8845084F8816000207AE7003001406C
:1035800000380040003C004070B5B6B0044614213D
:1035900030A8FCF76AFFC0216846FCF766FF2449A3
:1035A0002068884241D1002180140C460225CDE9D3
:1035B0000001102002900001CDE9030500010991EE
:1035C000CDE906510595089118906846FEF782FDF1
:1035D00008B1FCF7C8FF1748016841F400410160D9
:1035E000006800F40040359012480838016841F046
:1035F00002010160006830A90F4E00F00200359012
:10360000082030900620CDE93154CDE933403046D2
:10361000FEF750F9202030900720CDE9315430A931
:10362000CDE933403046FEF745F936B070BD0000B5
:10363000003C0040E8440258000402582DE9F84FCD
:1036400007681D4690468B4620370446FEF72CFA45
:10365000064694F88100012840D1BBF1000F70D0DC
:10366000B8F1000FFBD094F88000012836D04FF05D
:10367000010A84F880A0032084F881004FF000093B
:10368000C4F88490C4F85CB0A4F86080A4F86280A8
:10369000C4F86490A4F86890A4F86A90C4F8749090
:1036A000C4F87090A068B0F5C02F206819D0C16828
:1036B00021F4C02141F40031C160206841686FF3FA
:1036C0000F0141EA080141602068016841F00101F1
:1036D00001606068B0F5800F08D00CE00220BDE802
:1036E000F88F016841F400610160E6E72068016835
:1036F00041F400710160E0680F281AD81EE02068CC
:10370000416989070BD5E16D09680162E06D001D13
:10371000E065B4F86200401EA4F8620009E0FEF71C
:10372000C3F9801BA84202D3681C02D094E0002D8C
:103730002FD0B4F862000028E1D171E007282AD820
:103740006AE087E02068416989071BD5B4F86210F8
:1037500001290BD9E16B49B1E16D09680162E06DA6
:10376000001DE065B4F86200801E08E0E06D00888E
:103770003880E06D801CE065B4F86200401EA4F85B
:10378000620008E0FEF790F9801BA84202D3681C93
:1037900001D061E0B5B3B4F862000028D2D13FE0B7
:1037A0002068416989072ED5B4F8621003290CD925
:1037B000E16B402909D9E16D09680162E06D001DE6
:1037C000E065B4F86200001F19E0B4F86210012946
:1037D0000BD9E16B49B1E06D00883880E06D801C49
:1037E000E065B4F86200801E09E0E16D097880F8B8
:1037F0002010E06D401CE065B4F86200401EA4F8A3
:10380000620009E028E0FEF74FF9801BA84202D3CE
:10381000681C01D020E0FDB1B4F862000028BFD1DF
:1038200000222B4608212046009602F0D1FA28B14A
:10383000D4F8840040F02000C4F88400204602F050
:1038400069FA84F881A084F88090D4F88400002874
:103850003FF445AF012042E7204602F05BFAD4F87E
:10386000840040F48070C4F8840084F881A00320B0
:1038700084F8809033E7401EB0F1807F10B501D30B
:10388000012010BD4FF0E02460610F21601702F0AD
:1038900019FE0020A06107202061002010BD7047A4
:1038A00070477047F0B590F83C20012A3CD00125C4
:1038B00080F83C50022280F83D2003685A689C68DA
:1038C0001A4E1B4FB34201D0BB4204D122F4700CFC
:1038D0004A6842EA0C0222F0700C0A6842EA0C02C2
:1038E0005A600268B24213D0B2F1804F10D0114B2F
:1038F0009A420DD0104B9A420AD0104B9A4207D0F0
:10390000BA4205D00E4B9A4202D00E4B9A4204D1D5
:10391000896824F080031943916080F83D500021AC
:1039200080F83C100846F0BD0220F0BD00000140C8
:10393000000401400004004000080040000C00406A
:10394000001800400040014010B5040003D094F876
:103950003D0010B107E0012010BD002084F83C00BC
:10396000204600F023F8022084F83D002068211D45
:1039700001F060F8012084F8480084F83E0084F8E3
:103980003F0084F8400084F8410084F8420084F845
:10399000430084F8440084F8450084F8460084F825
:1039A000470084F83D00002010BD000008B5006805
:1039B0001449B0F1804F14D0134A904220D10868C6
:1039C00040F00200086008680022032100F00200B5
:1039D00000901D20FEF7D6F91D20BDE80840FEF737
:1039E000C3B9086840F0010008600868002201219E
:1039F00000F0010000901C20FEF7C4F91C20ECE749
:103A000008BD0000E84402580004004090F83D1052
:103A1000012901D001207047022180F83D10016882
:103A2000CA6842F00102CA6000681349884214D093
:103A3000B0F1804F11D0114988420ED01049884210
:103A40000BD01049884208D00F49884205D00F4951
:103A5000884202D00E49884207D181680D4A114040
:103A6000062906D0B1F5803F03D0016841F001017D
:103A70000160002070470000000001400004004089
:103A800000080040000C0040000401400018004005
:103A9000004001400700010070B5044690F83C006A
:103AA0000025012815D0012684F83C60022084F806
:103AB0003D0020688268364B1A4022F47F428260C3
:103AC0000868702802462FD010DC10F00F0F03D0CA
:103AD00022E04FF0020070BD4FEA201007281BD2F1
:103AE000DFE800F0535353534B394100B0F1101F3E
:103AF0004BD009DCB0F5805F0FD0B0F5005F1ED071
:103B0000B0F5801F08D140E02038B0F580103CD0DF
:103B100010283AD0202838D0012584F83D600020B4
:103B200084F83C00284670BD4A682068D1E9021339
:103B300000F0E8FF2068816841F0770109E04A68F9
:103B40002068D1E9021300F0DDFF2068816841F4AC
:103B500080418160E1E7CA684968206802F064F941
:103B60002068502106E0CA684968206802F06DF9B3
:103B70002068602102F04EF9CFE7CA6849682068E2
:103B800002F052F920684021F4E720681146F1E77D
:103B900088FFCEFF70472DE9F04104460068C668F3
:103BA00005694FF00007A90713D5B10711D5F91E14
:103BB000016101202077206880698007204602D0BB
:103BC000FFF7E8FF04E000F08BF8204600F089F8EA
:103BD0002777680716D5700714D521686FF00400A1
:103BE0000861022020772068806910F4407F204619
:103BF00002D0FFF7CFFF04E000F072F8204600F09B
:103C000070F82777280715D5300713D521686FF08E
:103C100008000861042020772068C06980072046DA
:103C200002D0FFF7B7FF04E000F05AF8204600F09A
:103C300058F82777E80616D5F00614D521686FF0F6
:103C400010000861082020772068C06910F4407FC8
:103C5000204602D0FFF79EFF04E000F041F8204626
:103C600000F03FF82777E80708D0F00706D0216872
:103C70006FF001000861204600F034F8280601D4F6
:103C8000A80408D5300606D521686FF402500861F3
:103C90002046FFF705FEE80508D5300606D5216861
:103CA0006FF4807008612046FFF7F9FD680608D5BB
:103CB000700606D521686FF040000861204600F0CC
:103CC00012F8A8060AD5B00608D521686FF02000C2
:103CD00008612046BDE8F041FFF7E3BDBDE8F08193
:103CE000704770477047704790F88410012918D0CA
:103CF000012180F884102421C0F8881001680A6826
:103D00000B6823F001030B6022F000510022426691
:103D1000036819602021C0F8881080F884201046BC
:103D200070470220704710B50446D0F88C00202858
:103D300001D0022010BD51B14AB10120E06600203F
:103D40002067204601F070F9010002D005E0012053
:103D500010BDE06E012802D00121084610BD226886
:103D600010201062206850E8002F42F0100240E856
:103D70000023002BF6D1F0E710B500680649884211
:103D800009D1064801F0A0FBBDE810400349FF221D
:103D90000348FFF7C8BF10BD00440040400A00249C
:103DA0003C020024704770B5044690F88400012856
:103DB0001DD0012084F884002420C4F888002068E5
:103DC0000568026822F0010202602068826822F021
:103DD00060620A438260204602F098FC2068056019
:103DE0002020C4F88800002084F8840070BD0220E0
:103DF00070BD70B5044690F8840001281DD00120E4
:103E000084F884002420C4F88800206805680268CB
:103E100022F0010202602068826822F060420A43B8
:103E20008260204602F072FC206805602020C4F801
:103E30008800002084F8840070BD022070BD7047A7
:103E40007047000000680449884204D10349FF22FA
:103E50000348FFF768BF704700440040400A002451
:103E60003C0200242DE9F04107680446F8693968EE
:103E7000BA6840F60F0318424FF000054FF00206F3
:103E80000AD183067ED501F0200302F0805C53EA5C
:103E90000C0377D0616F73E1CE4BDFF83CC3134066
:103EA00001EA0C0C53EA0C0C6CD05FEAC07C0CD01D
:103EB0005FEAC15C09D54FF0010CC7F820C0D4F807
:103EC000907047F00107C4F89070870709D5D707AD
:103ED00007D027683E62D4F8906046F00406C4F824
:103EE000906046070AD5D60708D0276804263E62A8
:103EF000D4F8906046F00206C4F8906006070CD52E
:103F000001F020061E4308D0266808233362D4F847
:103F1000903043F00803C4F8903003050BD54B01F3
:103F200009D526684FF400633362D4F8903043F02B
:103F30002003C4F89030D4F89030002B3DD0800698
:103F400009D501F0200002F08051084303D0616FD1
:103F500009B120468847D4F890002168896849064D
:103F600002D410F0280F2AD0204602F081F82068F1
:103F7000806840061ED52068083050E8001F21F0F8
:103F8000400100E021E040E80012002AF3D1D4F81B
:103F9000800078B191490165D4F88000FCF796FC67
:103FA00000280AD0D4F88000016D00E02046BDE86A
:103FB000F04108472046FFF745FFBDE8F081204665
:103FC000FFF740FFC4F89050F7E7D4F86CC0202307
:103FD000BCF1010F7ED15FEAC06C7BD55FEAC16C9A
:103FE00078D51020386220688068400673D5D4F8F0
:103FF00080107B4A0868904234D0794A1832904247
:1040000030D0774A303290422CD0754A48329042B4
:1040100028D0734A6032904224D0714A783290425C
:1040200020D06F4A903290421CD06D4AA832904204
:1040300018D06C4A904215D06A4A1832904211D07A
:10404000684A303290420DD0664A4832904209D0D8
:10405000644A6032904205D0624A7832904201D080
:10406000604A903240680004000CA6D0B4F85C208E
:104070008242A2D9A4F85E00C869B0F5807F2FD033
:10408000206850E8001F21F4807140E80012002AE7
:10409000F6D12068083050E8001F21F0010140E807
:1040A0000012002AF5D12068083050E8001F21F0E6
:1040B000400140E80012002AF5D1C4F88C30E566D2
:1040C000206850E8001F21F0100140E80012002A8B
:1040D000F6D101E03FE00BE0D4F88000FCF746FAAF
:1040E0002667B4F85C00B4F85E10401A81B22EE086
:1040F000B4F85C00B4F85E10401A81B2B4F85E0007
:104100000028B2D00029B0D0206850E8002F22F457
:10411000907240E80027002FF6D12E4FFF43206811
:10412000083050E8002F3A4040E8002CBCF1000F66
:10413000F5D1C4F88C30E5666567206850E8002F3B
:1041400022F0100240E80023002BF6D1266720461B
:10415000FFF712FE31E7C60209D5560207D54FF424
:10416000801038622046BDE8F041FFF769BE0606C0
:104170000AD501F0800602F40002164304D0A16FB4
:1041800000297FF413AF18E7420611D54A060FD570
:104190002046016851E8002F22F0400241E8002447
:1041A000002CF6D1C0F88830856700F02EF904E7BE
:1041B000020206D54A0004D52046BDE8F041FFF7CB
:1041C0003EBEC001C6D50029C4DA2046BDE8F04194
:1041D000FFF7E8BD0100001020010004776100082E
:1041E000100002401004024010B5040003D0D4F8BF
:1041F000880010B107E0012010BD002084F8840081
:10420000204600F027F82420C4F8880020680168C0
:1042100021F001010160A06A10B1204600F07CFC91
:10422000204600F033FD0128E6D02068416821F4E3
:10423000904141602068816821F02A0181602068F6
:10424000016841F0010101602046BDE8104000F026
:10425000C7BC0000F0B5B7B00646142130A8FCF783
:1042600004F9C0216846FCF700F94249022730688A
:104270000025414C88422FD100201F950121CDE916
:1042800000106846FDF726FF08B1FCF76CF93A48C4
:104290001030016841F010010160006800F010006A
:1042A0003590206840F002002060206830A900F0BE
:1042B000020035904FF4404030900420CDE9317534
:1042C000CDE933502D48FDF7F5FA0022252011469F
:1042D000FDF758FD252048E02949884247D10020B4
:1042E0001E950221CDE900106846FDF7F3FE08B1E6
:1042F000FCF739F920480830016841F400310160C9
:10430000006800F400303590206840F00100206023
:10431000206830A900F0010035900C203090072073
:10432000CDE93175CDE933501648FDF7C3FA174C86
:10433000154820602B20C4E901054FF48060C4E9D2
:10434000035065612046A561E56125626562FCF761
:104350006DFF08B1FCF707F90022C6F8804026205F
:104360001146A663FDF70EFD2620FDF7FDFC37B0D4
:10437000F0BD000000100140E04402580004025863
:10438000004400400000025810000240D002002407
:1043900030B4D0F88C30202B02D0022030BC7047D3
:1043A000A9B1A2B10023C3660A4C0368A3420BD093
:1043B0005B681B0208D5036853E8004F44F0806433
:1043C00043E80045002DF6D130BC00F083BE01204B
:1043D000E4E70000000C005810B500680649884268
:1043E00009D1064800F02CF8BDE81040044901222C
:1043F0000448FFF7CDBF10BD001001404004002469
:10440000BF050024A801002470477047FEE70000A4
:10441000094B002230B400EB820453F82210521CE6
:10442000D2B2A166032AF6D330BC012200F27F117A
:104430000248FFF7ADBF000028000024A8010024B7
:104440001A4A10B590F87F3111784418491CC9B246
:1044500084F880300023117090F88040552C23D1CF
:104460000B2922D390F88110512904D0532906D06A
:10447000592909D018E080F86430416F08E0012123
:1044800080F86410816F03E0022180F86410C16F2E
:10449000D0F880400C60D0F884404C60B0F8884080
:1044A0000C8190F88A008872137010BD24000024DB
:1044B000034810B5FCF759F80249086010BD000028
:1044C0004004002414000024094808B5016841F0A4
:1044D0000101016000680022114600F00100009017
:1044E0000B20FDF74FFCBDE808400B20FDF73CBC5E
:1044F000D84402582DE9F04387B014216846FBF7F1
:10450000B4FF3A48016841F010010160016801F010
:1045100010010591016841F080010160016801F01E
:1045200080010591016841F004010160016801F01A
:1045300004010591016841F001010160016801F089
:1045400001010591016841F002010160016801F07B
:1045500002010591016841F0080101600068002234
:10456000234E0C2100F0080005903046FDF790FA2C
:10457000204F002201213846FDF78AFADFF87880C3
:10458000002218214046FDF783FADFF870900022E0
:1045900010214846FDF77CFA012569460C200024CD
:1045A000CDE900050320CDE902403046FDF782F950
:1045B00000956946CDE9015438460394FDF77AF930
:1045C00018200090CDE90154694640460394FDF758
:1045D00071F910200090CDE90154694648460394D2
:1045E000FDF768F907B0BDE8F0830000E044025829
:1045F0000010025800080258000C0258000402582B
:1046000013480122114910B501601249416000218F
:10461000C0E90212016141618161C1610162FDF77E
:104620009DFA08B1FBF79FFF09480021FDF742FA08
:1046300008B1FBF798FF06480021FDF766FA00284D
:1046400003D0BDE81040FBF78EBF10BD00580040FE
:1046500034000024FFECC01018484FF08042164987
:1046600010B501604FF4800141604911816007215C
:10467000C1604FF0007101614910416189008161A1
:104680004FF0A041C1610021016241628162C162BB
:10469000C0E90D21C163016441648164C1640165A5
:1046A00041658165FEF7B8FE002803D0BDE81040E3
:1046B000FBF759BF10BD0000003C004088000024FB
:1046C00010B588B0174800244FF080410094019441
:1046D0000294039404940594069401604FF47A7153
:1046E000C0E901144900C0E903148461FFF72CF903
:1046F00008B1FBF738FF4FF4805000900948694635
:10470000FFF7CAF908B1FBF72EFF064804A9049485
:104710000694FFF7C7F8002801D0FBF724FF08B084
:1047200010BD00001001002410B588B01748002407
:1047300015490094019402940394049405940694FA
:1047400001604FF47A71C0E901148900C0E90314D3
:104750008461FFF7F9F808B1FBF705FF4FF48050CB
:1047600000900A486946FFF797F908B1FBF7FBFE8E
:10477000064804A904940694FFF794F8002801D091
:10478000FBF7F1FE08B010BD000400405C010024FE
:1047900018480C22164910B501604FF416514160BB
:1047A00000218160C160C0E904128161C1610162C0
:1047B00041628162FFF718FD08B1FBF7D4FE0D4896
:1047C0000021FFF716FB08B1FBF7CDFE09480021D9
:1047D000FFF7E9FA08B1FBF7C6FE0648FFF784FACF
:1047E000002803D0BDE81040FBF7BDBE10BD00009F
:1047F00000100140A801002418480C22164910B5E9
:1048000001604FF4E131416000218160C160C0E985
:1048100004128161C161016241628162FFF7E4FCBF
:1048200008B1FBF7A0FE0D480021FFF7E2FA08B13E
:10483000FBF799FE09480021FFF7B5FA08B1FBF72D
:1048400092FE0648FFF750FA002803D0BDE810405A
:10485000FBF789BE10BD0000004400403C0200246C
:10486000FEE7FEE770B500250021284600F052FD66
:104870000024002000F05FFD641CE4B2802CF8D31B
:104880006D1CEDB2082DEFD370BD00214FF47A728C
:1048900010B50020401C9042FCD3491C9142F8D333
:1048A00000F0F8FCAE2000F0ABFDD52000F0A8FD34
:1048B000802000F0A5FDA82000F0A2FD3F2000F020
:1048C0009FFDD32000F09CFD002000F099FD4020CA
:1048D00000F096FDA12000F093FDC82000F090FDAF
:1048E000DA2000F08DFD122000F08AFD812000F01A
:1048F00087FDCF2000F084FDD92000F081FDF1205C
:1049000000F07EFDDB2000F07BFD302000F078FD24
:10491000A42000F075FDA62000F072FD8D2000F0AF
:104920006FFD142000F06CFDAF2000F069FDBDE8C4
:104930001040FFF797BF70477047FDF7B1B900000F
:104940002C4810B5016841F4700101602A4A1068D2
:1049500000F00F00072804D2106820F00F00C01DDF
:1049600010602649086840F001000860234B0020D1
:10497000103318600B68224C23400B60136803F05F
:104980000F03072B04D9136823F00F03DB1D1360FB
:104990001A4A18321060121D1060121D1060174B59
:1049A000184A28331A601B1D174A1A601B1D174A24
:1049B0001A601B1D18601B1D1A601B1D18601B1D33
:1049C0001A601A1D10600A6822F480220A600B49DE
:1049D000603108600E4800686FF30F00B0F1005FAF
:1049E00003D20C490120C1F8080143F2D2000A4960
:1049F000086010BD88ED00E000200052004402581D
:104A00007FEDF6EA000202020000FF0180020101D0
:104A10000010005C00800051004000520148FFF788
:104A2000BAB80000100100240148FFF7B4B8000034
:104A30005C0100242DE9F04702684FF0804A294CC0
:104A4000294D2A4EA0422A4F2A4B09D0504507D063
:104A5000A84205D0B04203D0B84201D0984204D158
:104A600022F0700C4A6842EA0C02DFF88CC0DFF8D2
:104A70008C80A042DFF888900FD050450DD0A8421E
:104A80000BD0B04209D0B84207D0984205D060455B
:104A900003D0404501D0484503D122F44075CA688F
:104AA0002A434D6922F080022A4302608A68C2626A
:104AB0000A688262A04207D0984205D0604503D0C0
:104AC000404501D0484501D1096901630121416197
:104AD0000169C90703D0016921F001010161BDE845
:104AE000F087000000000140000400400008004082
:104AF000000C00400004014000400140004401401F
:104B00000048014010B5846842EA03220A4324F4B5
:104B10007F442243826010BD90F82810090706D513
:104B200001684A68836B22F400421A434A6090F895
:104B30002810C90706D001684A68C36A22F4003207
:104B40001A434A6090F82810890706D501684A6818
:104B5000036B22F480321A434A6090F82810490708
:104B600006D501684A68436B22F480221A434A60E2
:104B700090F82810C90606D501688A68C36B22F42C
:104B800080521A438A6090F82810890606D5016879
:104B90008A68036C22F400521A438A6090F8281045
:104BA000490611D501684A68436C22F480121A4301
:104BB0004A60416CB1F5801F06D101684A68836C78
:104BC00022F4C0021A434A6090F82810090606D55C
:104BD00001684A68C06C22F4002202434A607047B0
:104BE0002DE9F84300250446C0F89050FCF75CFF1F
:104BF0008046206800686FF07E474FF0200600076F
:104C000013D50022434631042046009700F0EAFA0B
:104C100058B1206850E8001F21F0800140E80012E0
:104C2000002AF6D1C4F8886021E0206800684007B7
:104C300022D5002243464FF480012046009700F021
:104C4000D1FAC8B1206850E8001F21F4907140E803
:104C50000012002AF6D12068083050E8001F21F029
:104C6000010140E80012002AF5D1C4F88C6003204D
:104C700084F88450BDE8F883C4F88860C4F88C6078
:104C8000E5662567002084F88450F3E72DE9F043BA
:104C9000044600680025DFF8548387B02269A168C4
:104CA000E369114362691A4311430268D04B1A4009
:104CB0000A43026020684168E26821F440511143D0
:104CC00041602168A069414501D0226A10438A6889
:104CD000C84B1A4002438A602068C16A626A21F0A8
:104CE0000F011143C162C4492268C4488A420ED1EF
:104CF000006800F03800182873D047DCB8B30828E3
:104D000079D010286FD178E028287ED17BE0BC498B
:104D10008A4209D1006800F00700062875D2DFE852
:104D200000F0546A6C6E7072B6498A4209D100680C
:104D300000F00700062868D2DFE800F0475D5F61F9
:104D40006365B1498A4209D1006800F0070006286E
:104D50005BD2DFE800F03A5052545658AB498A42D1
:104D60000BD1006800F0070006284ED200E010E0EA
:104D7000DFE800F02B4143454749A5498A420AD163
:104D8000006800F03800182839D0B7DD2028BBD1E2
:104D900037E001213AE09F498A4209D1006800F0DA
:104DA0000700062831D2DFE800F01026282A2C2E32
:104DB00099498A420BD1006800F00700062824D2E6
:104DC000DFE800F003191B1D1F2100211EE04245F2
:104DD0001BD18A48001D006800F00700062814D285
:104DE00002E00CE007E010E0DFE800F0030507094F
:104DF0000B0D02210AE0042108E0082106E0102141
:104E000004E0202102E0402100E0802183487B4B28
:104E10004FF4004C824E4FF000090711543B4245BD
:104E20004DD1102919D006DC022909D004290AD055
:104E300008297DD10CE020293DD0402978D13CE0E3
:104E4000FCF7FAFF10E06846FDF708F801980BE060
:104E500003A8FDF7A1F8049806E01968890605D5AE
:104E60001968C1F3C101C840002823D0616A36F82F
:104E700011206668B0FBF2F106EB46038B4257D86F
:104E8000B1EB063F54D800234F461946FBF776FA9C
:104E90000902020241EA1061700810183246794195
:104EA0000023FBF76BFA5F4AA0F5407191423FD8AF
:104EB0002168C86086E03846D8E76046D6E7E269F0
:104EC0004FF6EF78624545D1082918D005DC59B175
:104ED00001290CD0042974D10CE0102914D0202908
:104EE00034D040296DD133E0FDF722FF13E0FDF708
:104EF00031FF10E06846FCF7B1FF01980BE003A812
:104F0000FDF74AF8049806E01968890604D519687F
:104F1000C1F3C101C84080B3616A36F81110B0FB1B
:104F2000F1F04100606801EB5001B1FBF0F000E0EE
:104F300047E0A0F11002424543D84FF6F07101401E
:104F4000C0F3420001432068C1603BE03846E3E71C
:104F50006046E1E7082919D005DC59B101290DD0D7
:104F600004292ED10DE0102915D0202937D0402951
:104F700027D136E0FDF7DCFE14E023E0FDF7EAFE82
:104F800010E06846FCF76AFF01980BE003A8FDF704
:104F900003F8049806E01968890604D51968C1F376
:104FA000C101C84070B1616A36F81110B0FBF1F16F
:104FB000606801EB5001B1FBF0F0A0F11001414538
:104FC00011D901250120A4F86A00A4F86800284638
:104FD000C4F87490C4F8789007B0BDE8F083384600
:104FE000E1E76046DFE780B262E70000000C0058AE
:104FF000F369FFCFFFF4FF11001001405444025841
:105000000044004000480040004C00400050004078
:105010000014014000780040007C00400090D00364
:1050200056680008FFFC0F0070B581650021A0F8EC
:105030005C200446C0F890102220C4F88C00D4F8FC
:105040008000F8B1204BC363D4F880301F48186447
:10505000D4F880301E48D8641346D4F88000016527
:10506000A06DD4F880502168024628462431FCF710
:10507000B5FA38B11020C4F890002020C4F88C0094
:10508000012070BD206940B1206850E8001F41F444
:10509000807140E80012002AF6D12068083050E8FC
:1050A000001F41F0010140E80012002AF5D12068FC
:1050B000083050E8001F41F0400140E80012002A8B
:1050C000F5D1002070BD0000F360000851600008B9
:1050D0006F5E000870B58165A0F85C20A0F85E20C6
:1050E00000234367FF2581684FF48054A14204D117
:1050F0000169F9B940F2FF1122E07F26C1B1B1F197
:10510000805F1AD0A0F86030C0F890302221C0F83B
:105110008C100168083151E8003F43F0010341E879
:105120000035002DF5D1416EB1F1005F0ED031E0B8
:10513000016941B9A0F86050E6E7016919B13F2162
:10514000A0F86010E0E7A0F86060DDE7B0F8681054
:1051500091421FD88168A14201D10169B9B11D49AD
:105160004167016941B1016851E8002F42F4807242
:1051700041E80023002BF6D10168083151E8002FE7
:1051800042F0805241E80023002BF5D120E0124983
:105190004167F1E78168A14201D1016969B10F4915
:1051A0004167016959B1016851E8002F42F49072DA
:1051B00041E80023002BF6D10AE009494167016864
:1051C00051E8002F42F0200241E80023002BF6D1E5
:1051D000002070BD8D61000829630008C15E0008D1
:1051E000895F00082DE9F0471F4690460D460446AA
:1051F000089E4FF0000932E0701C30D0FCF754FCE0
:10520000C01BB04218D8BEB120680168490726D536
:10521000802D24D0402D22D0C169C94309070DD467
:1052200008250562204600F023FFC4F890500120B5
:1052300084F88490BDE8F0870320FBE7C069C04391
:1052400000050CD421684FF400600862204600F08D
:105250000FFF2020C4F8900084F88490ECE72068C9
:10526000C06935EA000004D000204045C4D00020C9
:10527000E0E70120F9E700000148FEF7F3BD000078
:10528000A80100240148FEF7EDBD00003C02002407
:10529000FEE7000010B5064C012204212046FCF771
:1052A000F7FB01222046BDE810400821FCF7F0BBC7
:1052B0000010025810B5094C002208212046FCF7C6
:1052C000E7FB012220460421FCF7E2FB01222046F5
:1052D000BDE810400821FCF7DBBB000000100258BD
:1052E00010B50B4C012208212046FCF7D1FB01220E
:1052F00020460421FCF7CCFB002220460821FCF7C5
:10530000C7FB00222046BDE810400421FCF7C0BBCB
:105310000010025810B540F0B0000C4600F070F8D4
:10532000102040EA141000F06BF804F00F00BDE804
:10533000104000F065B810B50446FFF7D1FF7820A3
:1053400000F034F8402000F031F8204600F02EF84C
:10535000BDE81040FFF7AEBF2DE9F0411C461546F1
:105360000E4607462A2000F095FA380A00F0A0FA07
:10537000F8B200F09DFA280A00F09AFAE8B200F0BC
:1053800097FA2B2000F086FA300A00F091FAF0B27A
:1053900000F08EFA200A00F08BFAE0B200F088FAF2
:1053A000BDE8F0412C2000F075BA00002DE9F04175
:1053B000124D0024802706460821284627FA04F2C9
:1053C0003240FCF765FB012228460421FCF760FB14
:1053D000002228460421FCF75BFB641CE4B2082C85
:1053E000EAD3012228460421FCF752FB2846BDE8F7
:1053F000F04100220421FCF74BBB000000100258D2
:1054000010B50446FFF76CFF7820FFF7CFFF0020B0
:10541000FFF7CCFF2046FFF7C9FFBDE81040FFF7BC
:1054200049BF000030B59DB04C216846FBF71DF820
:10543000202113A8FBF719F80220FCF7D5FC20481F
:105440000024016821F00101016000681D48016825
:1054500041F440410160016801F440411B91016841
:105460008904FCD501200090402500040190022011
:1054700009900A90CDE90B050D900E900F900C202D
:10548000CDE9100468461294FDF70EFD08B172B61E
:10549000FEE73F2013900320CDE9140408201A955D
:1054A000CDE91605C0010221CDE9185013A8FDF77A
:1054B000E5FA002801D072B6FEE71DB030BD00004D
:1054C0002C04005818480258017801291AD1417853
:1054D000032917D1C178AC2914D10179DA2911D166
:1054E000417900290ED1B0F8091049BAA0F800118D
:1054F000B0F80B1049BAA0F80211B0F80D1049BA73
:10550000A0F804117047000010B56D4C002208216E
:105510002046FCF7BDFA002220461021FCF7B8FA1D
:105520000C20FCF7B5F9012220461021FCF7B0FA57
:105530000C20FCF7ADF9112000F0ACF90C20FCF7C1
:10554000A7F9362000F0A6F9002000F0B1F93A20C2
:1055500000F0A0F9652000F0ABF9B22000F09AF954
:105560000C2000F0A5F90C2000F0A2F9002000F0BA
:105570009FF9332000F09CF9332000F099F9B7200F
:1055800000F088F9722000F093F9BB2000F082F956
:105590003D2000F08DF9C02000F07CF92C2000F0B7
:1055A00087F9C22000F076F9012000F081F9C320CC
:1055B00000F070F9192000F07BF9C42000F06AF9BE
:1055C000202000F075F9C62000F064F90F2000F0EB
:1055D0006FF9D02000F05EF9A42000F069F9A12055
:1055E00000F066F9E02000F055F9D02000F060F9F5
:1055F000042000F05DF90D2000F05AF9112000F0B0
:1056000057F9132000F054F92B2000F051F93F20F6
:1056100000F04EF9542000F04BF94C2000F048F90E
:10562000182000F045F90D2000F042F90B2000F0A1
:105630003FF91F2000F03CF9232000F039F9E12068
:1056400000F028F9D02000F033F9042000F030F900
:105650000C2000F02DF9112000F02AF9132000F0A1
:1056600027F92C2000F024F93F2000F021F94420F4
:1056700000F01EF9512000F01BF92F2000F018F95E
:105680001F2000F015F91F2000F012F9202000F073
:105690000FF9232000F00CF9212000F0FBF829205D
:1056A00000F0F8F8002140F23F12AB230846FFF764
:1056B00053FEBDE810404FF6FF7000F003B8000045
:1056C000000C025870B5050A40F23F120021C4B226
:1056D0000846AB23FFF740FE0E4900204FF410723E
:1056E00001EB400301F81050401C5C7080B2904206
:1056F000F6D3094801221021FCF7CAF900244FF41F
:1057000090650448294600F0BDF8641CA4B2642CDE
:10571000F7D370BDC005002400040258416FD1F8D2
:105720000220C0F85620D1F80610C0F85A10B0F97F
:10573000561000EE101AB8EEC01B9FED150B21EEAF
:10574000002BB3EE001B22EE013B9FED132B23EE4B
:10575000023B80ED063BB0F9581003EE101AB8EE8C
:10576000C33B23EE003B23EE013B23EE023B80EDE7
:10577000083BB0F95A1003EE101AB8EEC33B23EE03
:10578000000B20EE010B20EE020B80ED0A0B7047A0
:10579000000000000000003F0F9C33A2B49723409C
:1057A000816FD1F802200265D1F806104165B0F989
:1057B000501000EE101AB8EEC01B9FED110B21EE39
:1057C000002B9FED111B22EE012B80ED022BB0F977
:1057D000521002EE101AB8EEC22B22EE002B22EE6F
:1057E000012B80ED002BB0F9541002EE101AB8EE28
:1057F000C22B22EE000B20EE010B80ED040B704754
:10580000000000000000003F000000000080664033
:10581000C16FD1F80220C265D1F806200266D1F826
:105820000A104166B0F95C1000EE101AB8EEC01B09
:105830009FED120B21EE001B80ED0C1BB0F95E10EA
:1058400001EE101AB8EEC11B21EE001B80ED0E1BFD
:10585000B0F9601001EE101AB8EEC11B21EE001B6A
:1058600080ED101BB0F9621001EE101AB8EEC11BEA
:1058700021EE000B80ED120B7047000000000000CD
:105880000000003F0A4601460148FF23FDF7D6BE4F
:105890008800002401B5054800221021FCF7F8F823
:1058A00001216846FFF7EEFF08BD00000004025822
:1058B00001B5054801221021FCF7EAF801216846EC
:1058C000FFF7E0FF08BD0000000402582DE9F04F8B
:1058D000834E834FDFF808C24836DFF80492DFF8C2
:1058E00000A20CF1180CDFF8F8B109F13009DFF86B
:1058F000F0E10AF1600A04680BF1780B856D0EF196
:10590000900EBC426DD064456BD04C4569D0B4421A
:1059100067D0544565D05C4563D0744561D0DFF8ED
:10592000C08108F1A80844455BD0DFF8B881444540
:1059300057D0DFF8B08108F11808444551D0DFF89E
:10594000A48108F1300844454BD0DFF8988108F174
:105950004808444545D0DFF88C8108F1600844458B
:105960003FD0DFF8808108F17808444539D0DFF86E
:10597000748108F19008444533D0DFF8688108F15C
:10598000A80844452DD0DFF86081444529D0DFF8D0
:10599000588108F11408444523D0DFF84C8108F100
:1059A000280844451DD0DFF8408108F13C084445F3
:1059B00017D0DFF8348108F15008444511D0DFF8E2
:1059C000288108F1640844450BD0DFF81C8108F1F8
:1059D0007808444505D0DFF8108108F18C0844456B
:1059E00009D1D0E91948C4F80480C46E1CB1D0E9CB
:1059F0001C48C4F804800468BC422ED064452CD0F6
:105A00004C452AD0B44228D0544526D05C4524D0F9
:105A1000744522D0324EA836B4421ED0314EB44224
:105A20001BD0304E1836B44217D02E4E3036B4420A
:105A300013D02C4E4836B4420FD02A4E6036B442B2
:105A40000BD0284E7836B44207D0264E9036B4425A
:105A500003D0244EA836B44215D190F85C4004F02F
:105A60001F063F24B440AC600468256825F48025F7
:105A700025602EE09A600068C160BDE8F08F9960F3
:105A80000068C260F9E7184EB4421BD0164E1436B7
:105A9000B44217D0144E2836B44213D0124E3C36BE
:105AA000B4420FD0104E5036B4420BD00E4E643676
:105AB000B44207D00C4E7836B44203D00A4E8C362E
:105AC000B442DAD190F85C4004F01F060124B440DF
:105AD0006C60046863608368402B0368CFD1C9E7BA
